S01600005761746572696E6753797374656D2E7372656348
S11300000C942A000C943F000C943F000C943F0085
S11300100C943F000C943F000C943F000C943F0060
S11300200C943F000C943F000C943F000C943F0050
S11300300C943F000C943F000C943F000C943F0040
S11300400C943F000C943F000C943F000C943F0030
S11300500C943F0011241FBECFE5D8E0DEBFCDBF16
S113006010E0A0E6B0E0EAEFF9E002C005900D92DE
S1130070AA36B107D9F70E9493020C94FB040C949E
S11300800000672B09F09FC0009711F4D8980895D9
S11300908130910511F4D99808958230910511F4B5
S11300A0DA9808958330910511F4DB98089584302B
S11300B0910511F4DC9808958530910511F4DD98CB
S11300C008958630910511F4DE98089587309105DE
S11300D011F4DF9808958A30910511F4C0980895B9
S11300E08B30910511F4C19808958C30910511F469
S11300F0C29808958D30910511F4C39808958E30F7
S1130100910511F4C49808958F30910511F4C598A0
S113011008958031910511F4C698089581319105AF
S113012011F4C79808958431910511F4A89808959D
S11301308531910511F4A99808958631910511F43A
S1130140AA9808958731910511F4AB9808958831E0
S1130150910511F4AC9808958931910511F4AD9885
S113016008958A31910511F4AE9808958B31910563
S113017011F4AF9808958E31910511F49098089573
S11301808F31910511F4919808958032910511F4FD
S1130190929808958132910511F4939808958232CA
S11301A0910511F4949808958332910511F495986A
S11301B008958432910511F496980895859709F06D
S11301C09FC097980895009711F4D89A08958130A4
S11301D0910511F4D99A08958230910511F4DA9AAF
S11301E008958330910511F4DB9A089584309105C4
S11301F011F4DC9A08958530910511F4DD9A08957F
S11302008630910511F4DE9A08958730910511F432
S1130210DF9A08958A30910511F4C09A08958B30BD
S1130220910511F4C19A08958C30910511F4C29A84
S113023008958D30910511F4C39A08958E30910577
S113024011F4C49A08958F30910511F4C59A089554
S11302508031910511F4C69A08958131910511F404
S1130260C79A08958431910511F4A89A08958531A7
S1130270910511F4A99A08958631910511F4AA9A69
S113028008958731910511F4AB9A08958831910549
S113029011F4AC9A08958931910511F4AD9A089539
S11302A08A31910511F4AE9A08958B31910511F4B8
S11302B0AF9A08958E31910511F4909A08958F3173
S11302C0910511F4919A08958032910511F4929A4E
S11302D008958132910511F4939A0895823291051B
S11302E011F4949A08958332910511F4959A08951E
S11302F08432910511F4969A0895859709F4979A92
S11303000895CF93C82F80FF07C061E070E082E2B8
S113031090E00E94410006C060E070E082E290E05C
S11303200E944100C1FF07C061E070E083E290E0F9
S11303300E94410006C060E070E083E290E00E9409
S11303404100C2FF07C061E070E084E290E00E94D7
S1130350410006C060E070E084E290E00E94410049
S1130360C3FF07C061E070E085E290E00E944100B5
S113037006C060E070E085E290E00E944100CF9109
S11303800895CF93C82F60E070E08AE190E00E9466
S113039041008C2F0E94810161E070E08BE190E0CC
S11303A00E9441008FE99FE00197F1F700C000002F
S11303B060E070E08BE190E00E9441008FE99FE0F3
S11303C00197F1F700C00000CF91089580E00E94EA
S11303D0C10181E00E94C1010895CF93C62F8130ED
S11303E059F480E8860F82958F700E94C1018C2F8A
S11303F08F700E94C1010CC0823051F480EC860FD2
S113040082958F700E94C1018C2F8F700E94C10150
S1130410CF91089580E00E9481012FEF89EF90E051
S1130420215080409040E1F700C0000083E00E942A
S1130430C1018FE19EE40197F1F700C0000083E061
S11304400E94C1018FED9BEA0197F1F700C0000003
S113045083E00E94C10182E00E94C10182E00E9407
S1130460C10188E00E94C10180E00E94C1018CE0CA
S11304700E94C10180E00E94C10186E00E94C10186
S11304800895CF93C82F61E070E08AE190E00E9464
S113049041008C2F82958F700E94810161E070E091
S11304A08BE190E00E9441008FE99FE00197F1F712
S11304B000C0000060E070E08BE190E00E94410029
S11304C08FE99FE00197F1F700C000008C2F8F7037
S11304D00E94810161E070E08BE190E00E944100A4
S11304E08FE99FE00197F1F700C0000060E070E041
S11304F08BE190E00E9441008FE99FE00197F1F7C2
S113050000C00000CF910895CF93DF93EC01888160
S1130510882331F021960E94410289918111FBCFF9
S1130520DF91CF910895CF93DF9300D000D0CDB762
S1130530DEB78FEF81BB84BB87BB80E687B981E8D8
S113054086B90E940A0218BA11E00EE2369A369968
S1130550FECF84B165B1829586958695837070E0EF
S1130560660F771F660F771F682B80E090E00E946C
S1130570D70320E030E040EA5BE30E948E044B01A5
S11305805C0120E030E040E250E40E9489048823CA
S11305900CF018BB20E030E040E050E4C501B401A9
S11305A00E949C0388230CF418BAC501B4010E946C
S11305B0A1036B017C01072E000C880B990B0E9490
S11305C0D9039B01AC01C501B4010E942F0320E0B3
S11305D030E040E251E40E948E044B015C0180E370
S11305E08C0D89830A83C501B4010E94A1036B01A8
S11305F07C01072E000C880B990B0E94D9039B01E8
S1130600AC01C501B4010E942F0320E32C0D2B8300
S113061020E030E040E251E40E948E040E94A103F5
S1130620605D6C831D820E94E60160E0812F0E9460
S1130630ED0180E690E00E94840260E082E00E9486
S1130640ED01CE0101960E9484022FEF89E698E124
S1130650215080409040E1F700C0000077CF50580F
S1130660BB27AA270E9447030C944F040E9441040D
S113067038F00E94480420F039F49F3F19F426F41E
S11306800C943E040EF4E095E7FB0C943804E92F37
S11306900E94600458F3BA1762077307840795072A
S11306A020F079F4A6F50C9482040EF4E0950B2E58
S11306B0BA2FA02D0B01B90190010C01CA01A001B0
S11306C01124FF27591B99F0593F50F4503E68F10B
S11306D01A16F040A22F232F342F4427585FF3CF4C
S11306E0469537952795A795F0405395C9F77EF41D
S11306F01F16BA0B620B730B840BBAF09150A1F066
S1130700FF0FBB1F661F771F881FC2F70EC0BA0FEB
S1130710621F731F841F48F4879577956795B79573
S1130720F7959E3F08F0B0CF9395880F08F099276E
S1130730EE0F9795879508950E94140408F481E0BC
S113074008950E94A8036894B1110C948304089539
S11307500E94680488F09F5798F0B92F9927B751E1
S1130760B0F0E1F0660F771F881F991F1AF0BA9551
S1130770C9F714C0B13091F00E948204B1E0089529
S11307800C948204672F782F8827B85F39F0B93F1B
S1130790CCF3869577956795B395D9F73EF4909504
S11307A08095709561957F4F8F4F9F4F0895E89482
S11307B009C097FB3EF490958095709561957F4FA5
S11307C08F4F9F4F9923A9F0F92F96E9BB27939553
S11307D0F695879577956795B795F111F8CFFAF463
S11307E0BB0F11F460FF1BC06F5F7F4F8F4F9F4F94
S11307F016C0882311F096E911C0772321F09EE8F2
S1130800872F762F05C0662371F096E8862F70E057
S113081060E02AF09A95660F771F881FDAF7880F31
S11308209695879597F90895990F0008550FAA0B87
S1130830E0E8FEEF16161706E807F907C0F01216EF
S11308401306E407F50798F0621B730B840B950BF2
S113085039F40A2661F0232B242B252B21F4089547
S11308600A2609F4A140A6958FEF811D811D0895E4
S113087097F99F6780E870E060E008959FEF80EC4F
S1130880089500240A9416161706180609060895F2
S113089000240A9412161306140605060895092E58
S11308A00394000C11F4882352F0BB0F40F4BF2BC7
S11308B011F460FF04C06F5F7F4F8F4F9F4F089507
S11308C057FD9058440F551F59F05F3F71F04795FD
S11308D0880F97FB991F61F09F3F79F087950895E2
S11308E0121613061406551FF2CF4695F1DF08C001
S11308F0161617061806991FF1CF8695710561051E
S113090008940895E894BB2766277727CB0197F9C5
S113091008950E94140408F48FEF08950E94A1041E
S11309200C944F040E94410438F00E94480420F0C3
S1130930952311F00C9438040C943E0411240C9467
S113094083040E94600470F3959FC1F3950F50E0F7
S1130950551F629FF001729FBB27F00DB11D639F6D
S1130960AA27F00DB11DAA1F649F6627B00DA11D13
S1130970661F829F2227B00DA11D621F739FB00DB9
S1130980A11D621F839FA00D611D221F749F332729
S1130990A00D611D231F849F600D211D822F762FC2
S11309A06A2F11249F5750409AF0F1F088234AF09F
S11309B0EE0FFF1FBB1F661F771F881F915050400B
S11309C0A9F79E3F510580F00C9438040C948304DD
S11309D05F3FE4F3983ED4F3869577956795B79592
S11309E0F795E7959F5FC1F7FE2B880F911D9695AC
S10D09F0879597F90895F894FFCF56
S10D09FA566F6C746167653A2000C3
S9030000FC
